:100000000C9462000C9402040C94DB030C948A00A0
:100010000C948A000C948A000C948A000C948A0038
:100020000C948A000C948A000C948A000C9481042D
:100030000C948A000C948A000C948A000C948A0018
:100040000C9491030C948A000C944F040C94290492
:100050000C948A000C948A000C948A000C948A00F8
:100060000C948A000C948A000000000024002700F1
:100070002A0000000000250028002B0000000000DE
:1000800023002600290004040404040404040202DA
:100090000202020203030303030301020408102007
:1000A0004080010204081020010204081020000012
:1000B0000008000201000003040700000000000027
:1000C00000003D0511241FBECFEFD8E0DEBFCDBF3D
:1000D00011E0A0E0B1E0E2E2F0E102C005900D9293
:1000E000A033B107D9F722E0A0E3B1E001C01D922F
:1000F000A230B207E1F710E0C2E6D0E004C02197D9
:10010000FE010E940908C136D107C9F70E94B40553
:100110000C940F080C940000833081F028F4813097
:1001200099F08230A9F008958730A9F08830C9F09D
:100130008430B1F4809180008F7D03C08091800075
:100140008F7780938000089584B58F7784BD08955C
:1001500084B58F7DFBCF8091B0008F778093B00006
:1001600008958091B0008F7DF9CFCF93DF93282F32
:1001700030E0F901E255FF4F8491F901E656FF4F57
:10018000D491F901EA57FF4FC491CC23A1F081111A
:100190000E948C00EC2FF0E0EE0FFF1FE458FF4FA1
:1001A000A591B491EC91ED2381E090E009F480E019
:1001B000DF91CF91089580E090E0FACF1F93CF9325
:1001C000DF93282F30E0F901E255FF4F8491F901C8
:1001D000E656FF4FD491F901EA57FF4FC491CC2363
:1001E000A9F0162F81110E948C00EC2FF0E0EE0F89
:1001F000FF1FEE58FF4FA591B4918FB7F894EC9183
:10020000111108C0D095DE23DC938FBFDF91CF9111
:100210001F910895DE2BF8CFCF93DF9390E0FC0180
:10022000E656FF4F24918A579F4FFC018491882303
:10023000D1F090E0880F991FFC01E859FF4FA5917C
:10024000B491FC01EE58FF4FC591D49161110EC0DD
:100250009FB7F8948C91E22FE0958E238C932881A0
:10026000E223E8839FBFDF91CF9108958FB7F89481
:10027000EC91E22BEC938FBFF6CF3FB7F8948091CF
:10028000360190913701A0913801B091390126B51E
:10029000A89B05C02F3F19F00196A11DB11D3FBFBE
:1002A000BA2FA92F982F8827BC01CD01620F711D8D
:1002B000811D911D42E0660F771F881F991F4A9587
:1002C000D1F708958F929F92AF92BF92CF92DF9213
:1002D000EF92FF920E943D014B015C0184E1C82E28
:1002E000D12CE12CF12C0E943D01681979098A0971
:1002F0009B09683E734081059105A8F321E0C21A6D
:10030000D108E108F10888EE880E83E0981EA11C50
:10031000B11CC114D104E104F10429F7FF90EF905E
:10032000DF90CF90BF90AF909F908F9008950895E9
:10033000AF92BF92CF92DF92EF92FF920F931F93F3
:10034000CF93DF936C017B018B01040F151FEB0131
:100350005E01AE18BF08C017D10759F06991D601E8
:10036000ED91FC910190F081E02DC6010995892B5A
:1003700079F7C501DF91CF911F910F91FF90EF9019
:10038000DF90CF90BF90AF900895FC01538D448DC6
:10039000252F30E0842F90E0821B930B541710F030
:1003A000CF96089501970895FC01918D828D98173D
:1003B00061F0A28DAE0FBF2FB11D5D968C91928D15
:1003C0009F5F9F73928F90E008958FEF9FEF089546
:1003D000FC01918D828D981731F0828DE80FF11D0F
:1003E000858D90E008958FEF9FEF0895FC01918D2A
:1003F000228D892F90E0805C9F4F821B91098F7323
:10040000992708958AE391E00E94F60121E0892B63
:1004100009F420E0822F089580E090E0892B29F0F4
:100420000E94020281110C9400000895FC01A48D29
:10043000A80FB92FB11DA35ABF4F2C91848D90E006
:1004400001968F739927848FA689B7892C93A089E9
:10045000B1898C91837080648C93938D848D981373
:1004600006C00288F389E02D80818F7D8083089506
:10047000EF92FF920F931F93CF93DF93EC0181E0F4
:10048000888F9B8D8C8D98131AC0E889F98980819B
:1004900085FF15C09FB7F894EE89FF896083E889CE
:1004A000F98980818370806480839FBF81E090E0C0
:1004B000DF91CF911F910F91FF90EF900895F62E4D
:1004C0000B8D10E00F5F1F4F0F731127E02E8C8DE7
:1004D0008E110CC00FB607FCFACFE889F98980812C
:1004E00085FFF5CFCE010E941602F1CFEB8DEC0F08
:1004F000FD2FF11DE35AFF4FF0829FB7F8940B8F49
:10050000EA89FB8980818062CFCFCF93DF93EC01B2
:10051000888D8823B9F0AA89BB89E889F9898C91EB
:1005200085FD03C0808186FD0DC00FB607FCF7CFA7
:100530008C9185FFF2CF808185FFEDCFCE010E94A7
:100540001602E9CFDF91CF9108958F929F92AF92DB
:10055000BF92FF920F931F93CF93DF93FC01F08024
:100560008BE08F1508F44FC0828108E512E0081B6C
:10057000110987FD1395000F111F000F111F8181B5
:10058000C8E8D0E0C81BD10987FDD395CC0FDD1F8B
:10059000CC0FDD1F4E010D2E000CAA08BB08DB019D
:1005A000653B710514F0A4EBB0E09801012E000C3E
:1005B000440B550B281939094A095B090E94C407E5
:1005C00024EB30E040E050E00E949A07820E931E38
:1005D000A41EB51E8C169D062CF0E801801691060F
:1005E0000CF4E4012297CC0FDD1F2FB7F8948F2D68
:1005F00090E0FC01EE0FFF1FE80FF91FE952FE4FDC
:10060000D283C1832FBFDF91CF911F910F91FF90B4
:10061000BF90AF909F908F900895892B79F410929E
:10062000800082E080938100109285001092840007
:10063000B19A80916F00826080936F000895FC01F1
:1006400001900020E9F73197AF01481B590BBC011D
:100650008AE391E00C9498018F929F92AF92BF929F
:100660000F931F93CF93DF93CDB7DEB7A1970FB64C
:10067000F894DEBF0FBECDBF19A2423008F44AE0A5
:100680008E010F5D1F4F842E912CB12CA12CA50142
:1006900094010E94CC07E62FB901CA01EA30F4F4B4
:1006A000E05DD801EE938D01232B242B252B79F7C8
:1006B00090E080E0109719F0CD010E941F03A196F1
:1006C0000FB6F894DEBF0FBECDBFDF91CF911F9163
:1006D0000F91BF90AF909F908F900895E95CE1CF0C
:1006E00088E191E00E941F0380E291E00E941F03D5
:1006F0006AE570E08FEF91E00E94A5026AE570E084
:100700008CEF91E00E94A5028AE580930501809319
:10071000040183E291E00E941F0380E291E00C94C7
:100720001F031F920F920FB60F9211242F933F9326
:100730008F939F93AF93BF93809132019091330138
:10074000A0913401B09135013091310123E0230FA4
:100750002D3758F50196A11DB11D209331018093CD
:10076000320190933301A0933401B093350180910D
:10077000360190913701A0913801B091390101966D
:10078000A11DB11D8093360190933701A0933801CC
:10079000B0933901BF91AF919F918F913F912F916C
:1007A0000F900FBE0F901F90189526E8230F02960A
:1007B000A11DB11DD2CF1F920F920FB60F9211241F
:1007C0002F933F934F935F936F937F938F939F9359
:1007D000AF93BF93EF93FF93E0910201F091030178
:1007E0000995FF91EF91BF91AF919F918F917F916B
:1007F0006F915F914F913F912F910F900FBE0F908E
:100800001F9018951F920F920FB60F9211242F93DD
:100810003F934F935F936F937F938F939F93AF9388
:10082000BF93EF93FF93E0910001F09101010995CF
:10083000FF91EF91BF91AF919F918F917F916F91B8
:100840005F914F913F912F910F900FBE0F901F908E
:1008500018951F920F920FB60F9211242F933F936A
:100860004F935F936F937F938F939F93AF93BF93B8
:10087000EF93FF938AE391E00E941602FF91EF91BC
:10088000BF91AF919F918F917F916F915F914F91A8
:100890003F912F910F900FBE0F901F9018951F92B0
:1008A0000F920FB60F9211242F938F939F93EF9374
:1008B000FF93E0914A01F0914B018081E09150015A
:1008C000F091510182FD1BC09081809153018F5F97
:1008D0008F7320915401821741F0E0915301F0E0B1
:1008E000E65CFE4F958F80935301FF91EF919F91AE
:1008F0008F912F910F900FBE0F901F9018958081B0
:10090000F4CF1F920F920FB60F9211242F933F93A3
:100910004F935F936F937F938F939F93AF93BF9307
:10092000CF93DF93EF93FF9380913001C091FB0150
:10093000D0E087FF24C0109285001092840080913F
:1009400030018F5F8093300180913001082E000CC0
:10095000990B8C179D0724F4809130018C30C4F1E1
:100960008091840090918500049680349C4908F41D
:100970007AC08091840090918500049676C0809121
:100980003001082E000C990B8C179D07C4F6E091DE
:1009900030018E2FEE0F990BFC01EE0FFF1FE80FB9
:1009A000F91FE952FE4F808186FFC9CFE0913001E7
:1009B0008E2FEE0F990BFC01EE0FFF1FE80FF91FB2
:1009C000E952FE4F808160E08F730E94DE00B7CF56
:1009D0002091840030918500E09130018E2FEE0F40
:1009E000990BFC01EE0FFF1FE80FF91FE952FE4FB4
:1009F00081819281820F931F909389008093880058
:100A0000E09130018E2FEE0F990BFC01EE0FFF1FCE
:100A1000E80FF91FE952FE4F808186FF11C0E09177
:100A200030018E2FEE0F990BFC01EE0FFF1FE80F28
:100A3000F91FE952FE4F808161E08F730E94DE0052
:100A4000FF91EF91DF91CF91BF91AF919F918F91E6
:100A50007F916F915F914F913F912F910F900FBEBA
:100A60000F901F90189580E49CE9909389008093E3
:100A700088008FEF80933001E3CF10923D011092F8
:100A80003C0188EE93E0A0E0B0E080933E019093BB
:100A90003F01A0934001B09341018AE091E090931F
:100AA0003B0180933A0185EC90E09093470180935D
:100AB000460184EC90E0909349018093480180ECDA
:100AC00090E090934B0180934A0181EC90E09093E9
:100AD0004D0180934C0182EC90E090934F01809304
:100AE0004E0186EC90E0909351018093500110925A
:100AF00053011092540110925501109256018091A9
:100B0000FB018C3048F591E0980F9093FB018093A6
:100B1000FF0190E0FC01EE0FFF1FE80FF91FE95203
:100B2000FE4F88EB9BE0928381838091FB018C30A8
:100B3000B8F491E0980F9093FB018093FC0190E052
:100B4000FC01EE0FFF1FE80FF91FE952FE4F88EB83
:100B50009BE09283818308958FEF8093FF01E5CF1F
:100B60008FEF8093FC010895CF93DF9300D000D0E6
:100B700000D01F92CDB7DEB7789484B5826084BD73
:100B800084B5816084BD85B5826085BD85B5816091
:100B900085BD80916E00816080936E00109281000F
:100BA00080918100826080938100809181008160CA
:100BB000809381008091800081608093800080918B
:100BC000B10084608093B1008091B0008160809317
:100BD000B00080917A00846080937A0080917A00DE
:100BE000826080937A0080917A00816080937A009D
:100BF00080917A00806880937A001092C100E09121
:100C00004A01F0914B0182E08083E0914601F0912E
:100C100047011082E0914801F09149018FEC8083F7
:100C200010925201E0914E01F0914F0186E08083D5
:100C3000E0914C01F0914D01808180618083E091D1
:100C40004C01F0914D01808188608083E0914C01DE
:100C5000F0914D01808180688083E0914C01F0919A
:100C60004D0180818F7D80838091FF018C3008F061
:100C700043C061E089E00E940C018091FF01282FB0
:100C800030E0F901EE0FFF1FE20FF31FE952FE4FB4
:100C90009081907C996090831092000210920102E2
:100CA0002CE0622F0E94FD0790E0829FB00111248A
:100CB00030E020E0AB01420F531FFA01EE0FFF1F9F
:100CC000E40FF51FE952FE4F408146FD07C02F5F3C
:100CD0003F4F2C30310571F70E940D03E091FF0169
:100CE0008E2F90E0FC01EE0FFF1FE80FF91FE95275
:100CF000FE4F8081806480838091FC018C3008F0FD
:100D000043C061E08AE00E940C018091FC01282F21
:100D100030E0F901EE0FFF1FE20FF31FE952FE4F23
:100D20009081907C9A6090831092FD011092FE0158
:100D30002CE0622F0E94FD0790E0829FB0011124F9
:100D400030E020E0AB01420F531FFA01EE0FFF1F0E
:100D5000E40FF51FE952FE4F408146FD07C02F5FAB
:100D60003F4F2C30310571F70E940D03E091FC01DB
:100D70008E2F90E0FC01EE0FFF1FE80FF91FE952E4
:100D8000FE4F80818064808360E083E00E940C01DC
:100D900060E084E00E940C0160E085E00E940C01AC
:100DA00060E086E00E940C0180E793E090930101EF
:100DB0008093000180916900836080936900E89AC4
:100DC00080E0E82E80E0F82E83E00E94B5002091BC
:100DD000050132EE320F019779F4393718F42F5F9D
:100DE000209305016091050170E08FEF91E00E9472
:100DF000A5020E946201E8CF84E00E94B500009144
:100E0000050122EE200F2F83019779F4293718F47A
:100E10000150009305016091050170E08FEF91E0B2
:100E20000E94A5020E946201E7CF85E00E94B50002
:100E300020910401019789F482EE820F893718F41A
:100E40002F5F209304016091040170E08CEF91E02A
:100E50000E94A5020E946201E8CF86E00E94B500D0
:100E600010910401019789F482EE810F893718F4FB
:100E70001150109304016091040170E08CEF91E037
:100E80000E94A5020E946201E8CF8F818937A8F0F5
:100E90008091FF0190910002A09101028C839D83BB
:100EA000AE83073908F040C00EE1602F70E0CE013C
:100EB00004960E94A502009305018091FC01909187
:100EC000FD01A091FE0189839A83AB831E3170F5E9
:100ED0001EE1612F70E0CE0101960E94A5021093E1
:100EE0000401612F70E090E080E04AE00E942C0352
:100EF00089E291E00E941F036091050170E090E09B
:100F000080E04AE00E942C0380E291E00E941F03EF
:100F1000E114F10409F458CF0E940202882309F475
:100F200053CF0E94000050CF06E9BFCF173988F297
:100F300016E9CFCF052E97FB1EF400940E94B1074F
:100F400057FD07D00E94CC0707FC03D04EF40C9449
:100F5000B10750954095309521953F4F4F4F5F4FCA
:100F6000089590958095709561957F4F8F4F9F4F15
:100F700008950E94EE07A59F900DB49F900DA49F29
:100F8000800D911D11240895B7FF0C94B9070E949C
:100F9000B907821B930B0895A1E21A2EAA1BBB1B53
:100FA000FD010DC0AA1FBB1FEE1FFF1FA217B30735
:100FB000E407F50720F0A21BB30BE40BF50B661F4B
:100FC000771F881F991F1A9469F76095709580950F
:100FD00090959B01AC01BD01CF010895A29FB00186
:100FE000B39FC001A39F700D811D1124911DB29F5D
:100FF000700D811D1124911D0895991B79E004C085
:10100000991F961708F0961B881F7A95C9F7809547
:101010000895EE0FFF1F0590F491E02D0994F894C8
:02102000FFCF00
:10102200970197015A5A0000000038029801C50141
:101032008502F601D401E80152455354415253004E
:101042000D0A006B65736D650020202020202000B2
:00000001FF
