:100000000A128A11F02F00308A000408840A82073D
:0600100000341E3496349A
:100E2E005A345A341830831603138700FA3092005E
:100E3E000630F000700883120313920474089500B4
:100E4E000C30F0007008970473089B000C30F00013
:100E5E0070089D048316031789010F308316031340
:100E6E0086008312031386010630F2001330F10060
:100E7E00AD30F000F00B412FF10B412FF20B412F53
:100E8E00482F9730740203184D2F4E2F542F973042
:100E9E007302031C532F542F592F9630F4009630A3
:100EAE00F300692F1E307402031C5E2F5F2F652F17
:100EBE001E3073020318642F652F692F1E30F40045
:100ECE001E30F3008312031306186E2F6F2F822F1E
:100EDE00861C722F732FA72F822F74089500013056
:100EEE00F0007008F4072730F100F530F000F00B39
:100EFE007E2FF10B7E2F83120313061C872F882F54
:100F0E009B2F96307402031C8D2F8E2F742F9B2FC8
:100F1E00740895000130F4022730F100F530F0002E
:100F2E00F00B972FF10B972F83120313861CA02F14
:100F3E00A12FA72F1F3074020318A62FA72F8F2FB4
:100F4E000619AA2FAB2FBE2F861DAE2FAF2FE32F64
:100F5E00BE2F73089B000130F0007008F307273096
:100F6E00F100F530F000F00BBA2FF10BBA2F83120F
:100F7E000313061DC32FC42FD72F96307302031CE5
:100F8E00C92FCA2FB02FD72F73089B000130F30241
:100F9E002730F100F530F000F00BD32FF10BD32FEB
:100FAE0083120313861DDC2FDD2FE32F1F307302F8
:100FBE000318E22FE32FCB2F4130F100EE30F0007B
:100FCE00F00BE72FF10BE72F0000482F0A128A11C2
:100FDE0000280A128A1117270A128A11F3000A1220
:100FEE008A1118270A128A11F40083010A128A1133
:020FFE00192FA9
:08400000FF3FFF3FFF3FFF3FC0
:04400E00F120FF3F5F
:00000001FF
